:020000040800F2
:10000000A82700204501000871060008AF05000878
:10001000B305000873030008B90D000800000000D4
:10002000000000000000000000000000370A000887
:100030007703000800000000110700081D0B0008EE
:100040005F0100085F0100085F0100085F01000810
:100050005F0100085F0100085F0100085F01000800
:100060005F0100085F0100085F0100085F010008F0
:100070005F0100085F0100085F0100085F010008E0
:100080005F0100085F0100085F0100085F010008D0
:100090005F0100085F0100085F0100085F010008C0
:1000A0005F0100085F0100085F0100085F010008B0
:1000B0005F0100085F0100085F0100085F010008A0
:1000C0005F0100085F0100085F0100085F01000890
:1000D000050A0008750B00087D0B00085F01000889
:1000E0005F0100085F0100085F0100085F01000870
:1000F0005F0100085F0100085F0100085F01000860
:100100005F0100085F0100085F0100085F0100084F
:100110005F0100085F0100085F0100085F0100083F
:100120005F0100085F0100085F0100085F0100082F
:10013000DFF80CD000F018F8004800473D0E00082A
:10014000A82700200648804706480047FEE7FEE74C
:10015000FEE7FEE7FEE7FEE7FEE7FEE7FEE7FEE777
:10016000210B000831010008064C074D06E0E0684D
:1001700040F0010394E8070098471034AC42F6D3EE
:10018000FFF7DAFFC81A0008E81A000870B501EB9B
:10019000020410F8015B15F0070301D110F8013BD0
:1001A0002A1106D110F8012B03E010F8016B01F8B9
:1001B000016B5B1EF9D12B0705D40023521E0FD40F
:1001C00001F8013BFAE710F8013B02F10202A1EB52
:1001D000030303E013F8015B01F8015B521EF9D53C
:1001E000A142D6D3002070BD21B1826842F0010245
:1001F000826003E0826822F001028260704701465B
:1002000000208A6812F0040F01D0012000E00020D5
:1002100070470146C86C80B27047024600201368E0
:100220000B4201D0012000E0002070470146002071
:100230008A6812F0080F01D0012000E0002070470A
:1002400030B502460020002350680F4C20400D7945
:100250000C6844EA05242043506090680B4C204011
:10026000D1E902542C434D7944EA4504204390607F
:10027000D06A20F470000C7C641EE4B2234340EA90
:100280000350D06230BD0000FFFEF0FFFDF7F1FF2C
:10029000F0B504460D4600200021092D11DDE0686F
:1002A000A5F10A0606EB4607072606FA07F188437A
:1002B000A5F10A0606EB460603FA06F10843E060DC
:1002C0000CE0206905EB4507072606FA07F188438D
:1002D00005EB450603FA06F108432061072A0FDA09
:1002E000606B561E06EB86071F2606FA07F1884349
:1002F000561E06EB860605FA06F10843606322E007
:100300000D2A0FDA206BD61F06EB86071F2606FA8A
:1003100007F18843D61F06EB860605FA06F1084367
:10032000206310E0E06AA2F10D0606EB86071F26A7
:1003300006FA07F18843A2F10D0606EB860605FAD8
:1003400006F10843E062F0BD816841F00801816078
:10035000704721B1826842F4A002826003E08268A3
:1003600022F4A00282607047816841F0040181603C
:10037000704700BFFEE770470549096821F010018A
:10038000034A11601146096801431160704700007B
:100390000020024001460020034A106800F03800A7
:1003A00008431060704700000020024099B11028F7
:1003B00008D14FF02042126E42F004024FF0204369
:1003C0001A661CE00E4A126842F004024FF0204305
:1003D000C3F8802013E0102808D14FF02042126E9D
:1003E000084B1A404FF020431A6608E0044A12688E
:1003F000044B02EA03024FF02043C3F88020704709
:10040000800000A0FBFF0F0030B500210022002378
:10041000446844F0080485682C43C5682C4305698A
:100420002C43856944EA4524C56944EA4531046A98
:100430002468056A6D6844EA0524056A2D8944EA42
:100440000544056A2D7B44EA0562446A2468456ACE
:100450006D6844EA0524456A2D8944EA0544456AE5
:100460002D7B44EA05630468102C05D14FF020442D
:100470002166A266E36607E0044C21604FF0204449
:10048000C4F88820024C236030BD0000800000A02A
:100490008C0000A02DE9F041024600250026002036
:1004A00000230024002791F803C00CF00F0591F8F9
:1004B00003C01CF0100F03D091F802C04CEA0505F0
:1004C00091F800C0BCF1000F31D0146800202BE07F
:1004D0004FF0010C0CFA00F3B1F800C00CEA03066F
:1004E0009E4220D183004FF00F0C0CFA03F7BC435F
:1004F00005FA03FC4CEA040491F803C0BCF1280F90
:1005000006D14FF0010C0CFA00FCC2F814C00AE04E
:1005100091F803C0BCF1480F05D14FF0010C0CFA63
:1005200000FCC2F810C0401C0828D1D31460B1F8F8
:1005300000C0BCF1FF0F34DD546800202EE000F154
:10054000080C4FF0010808FA0CF3B1F800C00CEAEF
:1005500003069E4221D183004FF00F0C0CFA03F7E3
:10056000BC4305FA03FC4CEA040491F803C0BCF157
:10057000280F05D100F1080C08FA0CF8C2F8148015
:1005800091F803C0BCF1480F07D100F1080C4FF0FF
:10059000010808FA0CF8C2F81080401C0828CED3D5
:1005A0005460BDE8F081416170470161704700BF50
:1005B000FEE700BFFEE7000000B58FB001214FF459
:1005C000F07000F0D3F84DF6B300ADF8380003201A
:1005D0008DF83A0018208DF83B000EA92148FFF74E
:1005E00059FF4FF4F060ADF838000EA91E48FFF730
:1005F00051FF4020ADF8380003208DF83A00482024
:100600008DF83B000EA91748FFF744FF4020ADF8D6
:1006100038000EA91548FFF73DFF01200090032088
:1006200001900220029001200390102004900220EB
:10063000059000200690402007904FF4C0200890BD
:10064000002009900A900B90CDF830D0CDF834D02E
:1006500004A8FFF7D9FE01211020FFF7A7FE0FB075
:1006600000BD0000001401400018014000200140BE
:100670007047000070B5002100230F22C4780CB32E
:10068000164C246804F4E064C4F5E064210AC1F166
:100690000403CA40447804FA03F1847814402143E7
:1006A00009010F4C0678A155047804F01F050124B8
:1006B000AC4005786D114FF0E02606EB8505C5F8D6
:1006C000004109E0047804F01F050124AC40054D09
:1006D0000678761145F8264070BD00000CED00E06C
:1006E00000E400E080E100E002490143024A1160B9
:1006F000704700000000FA050CED00E0024A0A40D5
:100700000243024B1A60704780FFFF1F08ED00E0B4
:100710007047000001460020034A506820F4404022
:1007200008435060704700000010024029B1064A9B
:1007300052690243044B5A6104E0034A52698243FE
:10074000014B5A61704700000010024029B1064A6F
:10075000D2690243044BDA6104E0034AD26982435E
:10076000014BDA61704700000010024029B1064ACF
:1007700092690243044B9A6104E0034A92698243FE
:10078000014B9A6170470000001002400F4800685A
:1007900040F001000D490860084640680C490840D7
:1007A0000A494860084600680A4908400749086045
:1007B0000846006820F4802008600846406820F45D
:1007C000FE0048604FF41F00886070470010024030
:1007D0000000FFF8FFFFF6FE30B5002100220024E4
:1007E00000232D4D6D6805F00C0121B1042905D0C1
:1007F000082923D105E0294D056022E0274D056039
:100800001FE0254D6D6805F47012234D6D6805F4E9
:100810008034022505EB92421CB9214D55430560F9
:100820000BE01D4D6D6815F4003F03D01C4D554382
:10083000056002E0194D5543056002E0174D056063
:1008400000BF00BF144D6D6805F0F0010909154D9A
:100850006B5C0568DD4045600F4D6D6805F4E06137
:10086000090A104D6B5C4568DD4085600A4D6D6876
:1008700005F46051C90A0B4D6B5C4568DD40C560ED
:10088000054D6D6805F44041890B074D6B5CC568EB
:10089000B5FBF3F5056130BD0010024000127A008F
:1008A00000093D00270000203700002010B5014658
:1008B0000022002300204A11012A02D1094C23689A
:1008C00006E0022A02D1074C236A01E0054C636A64
:1008D00001F01F02012494401C4201D0012000E0DD
:1008E000002010BD001002400248406800F00C00DB
:1008F000704700000010024001460020034A506883
:1009000020F0F000084350607047000000100240E3
:100910001149096821F480310F4A116011460968B4
:1009200021F480211160B0F5803F03D0B0F5802F15
:100930000ED106E00849096841F48031064A116089
:1009400007E00549096841F4A021034A116000E06D
:1009500000BF00BF704700000010024001460020A9
:10096000034A506820F4E06008435060704700007C
:100970000010024001460020034A506820F46050F5
:1009800040EAC1005060704700100240014908660B
:10099000704700000000424202460020044B5868A5
:1009A00020F47C1042EA01031843014B5860704761
:1009B0000010024001460020034A506820F0030066
:1009C00008435060704700000010024038B5002016
:1009D00000900024002500BF3120FFF767FF054687
:1009E0000098401C00900098B0F5A06F01D0002D39
:1009F000F2D03120FFF75AFF08B1012400E00024B3
:100A0000204638BD10B500F0F9FA10BD30B500240D
:100A100000230C110125A540ABB21AB185881D43F6
:100A2000858002E085889D43858030BD01468889A8
:100A3000704781817047704710B500F001F810BD14
:100A40000CB50020019000903248006840F48030DE
:100A50003049086000BF2F48006800F40030009063
:100A60000198401C0190009818B90198B0F5A06F4A
:100A7000F1D12848006810F4003F02D00120009016
:100A800001E0002000900098012842D1224800682F
:100A900040F01000204908600846006820F003007C
:100AA00008600846006840F0020008601948406885
:100AB000184948600846406848600846406840F465
:100AC000806048600846406820F47C104860084612
:100AD000406840F4E81048600846006840F08070C4
:100AE000086000BF0B48006810F0007FFAD009488A
:100AF000406820F00300074948600846406840F01D
:100B00000200486000BF0348406800F00C0008285D
:100B1000F9D10CBD001002400020024070470000D7
:100B200010B51148006840F001000F490860084600
:100B300040680E4908400C494860084600680C4966
:100B40000840094908600846006820F480200860D1
:100B50000846406820F4FE0048604FF41F0088609B
:100B6000FFF76AFF10BD0000001002400000FFF810
:100B7000FFFFF6FE10B500F065FD10BD10B500F0EA
:100B800061FB10BD21B1828942F40052828104E0F0
:100B900082894DF6FF731A408281704770B5024614
:100BA0000024002300250020A1F510666A3E00D134
:100BB00000BFC1F3421501F01F03012606FA03F33B
:100BC000012D02D19689334006E0022D02D1168A0A
:100BD000334001E0968A33400C12012606FA04F4F1
:100BE0001688344013B10CB1012000E0002070BD24
:100BF000F0B503460024002600250020A1F510676B
:100C00006A3F00D100BF1846C1F3421401F01F062D
:100C1000012707FA06F5012C01D10C3004E0022C63
:100C200001D1103000E014301AB107682F4307607B
:100C300002E00768AF430760F0BD00002DE9F04710
:100C400086B005460E460024A24600BFA1460027F6
:100C5000B08900B100BF2F462C8A4CF6FF700440CB
:100C6000F08804432C82AC894EF6F3100440B0881F
:100C700031890843718908430443AC81AC8A4FF63B
:100C8000FF400440B0890443AC8201A8FFF7A4FDF3
:100C90001F48874202D1DDF810A001E0DDF80CA06A
:100CA000A88910F4004F08D00AEBCA0000EB0A1024
:100CB00031684900B0FBF1F807E00AEBCA0000EB2D
:100CC0000A1031688900B0FBF1F86420B8FBF0F03D
:100CD00004012009642101FB1089A88910F4004F48
:100CE00008D0322000EBC900B0FBF1F000F00700A3
:100CF000044308E0322000EB09106421B0FBF1F05E
:100D000000F00F0004432C8106B0BDE8F08700001E
:100D10000038014001468888C0F308007047C1F3DD
:100D2000080282807047000010B5FFF72FFD4FF4D6
:100D30008030FFF7EDFDFFF749FE1E4908700846B9
:100D40000078012826D11020FFF716FB0220FFF7BC
:100D500021FB0020FFF7D0FD4FF48060FFF7FEFD80
:100D60000020FFF707FE4FF4E0114FF48030FFF74B
:100D700013FE0120FFF70AFE00BF3920FFF796FDA2
:100D80000028FAD00220FFF715FE00BFFFF7ACFDE8
:100D90000828FBD101210520FFF7E8FC00214FF0D6
:100DA0000060FFF7ABFC01210802FFF7BFFCFFF773
:100DB00003FC10BD0800002000BFFEE702E008C8E9
:100DC000121F08C1002AFAD170477047002001E0C5
:100DD00001C1121F002AFBD1704700002DE9F0412C
:100DE0000446002500260027032C02DD0020BDE874
:100DF000F081204600F038F805460F4830F814001E
:100E000000F5807086B20C4830F81400FF2801DC31
:100E1000002705E0084830F81400A0F5807087B27C
:100E2000B54201DCBD4204DA034820F81450012029
:100E3000DDE70020DBE700008C0000200024002517
:100E400000BF09E0002501E0681C85B24EF6602075
:100E50008542F9DB601C84B21E2CF3DBFFF764FFD4
:100E600000F0FCFC00BFFEE71CB5044664200190C6
:100E7000DF20009001212B48FFF7B6F900BFBDF835
:100E80000400411E89B201910028F8D134B1012C2F
:100E90000BD0022C10D0032C1CD114E0052301220E
:100EA0000A212048FFF7F4F917E0052301220B215E
:100EB0001C48FFF7EDF910E0052301220C21194829
:100EC000FFF7E6F909E0052301220D211548FFF798
:100ED000DFF902E043F239001CBD00BF01211148D7
:100EE000FFF737FA6420019000BFBDF80400411EEF
:100EF00089B201910028F8D100BF02210948FFF70B
:100F00008CF90028F9D00748FFF783F900900021F9
:100F10000448FFF71EFA00210248FFF765F9BDF803
:100F20000000D9E7002401401CB5002000904FF4D8
:100F30004040FFF7EFFB01214FF40470FFF716FC70
:100F40000F20ADF8040000208DF8070001A91B4810
:100F5000FFF7A0FA00201A490860087148714FF4A1
:100F6000602088600020C860012008741548FFF7E1
:100F700067F901211348FFF737F942F2107000902A
:100F800004E0BDF80000401E80B20090BDF80000F3
:100F90000028F6DC0B48FFF7D7F900BF0948FFF738
:100FA00045F90028FAD10748FFF7DEF900BF0548E8
:100FB000FFF725F90028FAD11CBD00000010014000
:100FC000BC0200200024014070B50446601EC5B27A
:100FD000044A32F81510044A52F82500FFF7E5FAE2
:100FE00070BD0000600000203C00002010B50248E9
:100FF000FFF71CFDC0B210BD003800402DE9F041E4
:101000003748007848B10120364908700022712124
:101010003548FFF7FBFCBDE8F081344800680078F4
:10102000401EC7B231480068C669FFF7DFFF0546BA
:101030002E48006890F8204015F0010F22D10020C2
:101040002B49088029480068103050F82400401EC1
:10105000B04201D9761C31E0022C03DA601CC4B224
:1010600000262BE0791CC8B2FFF7AEFF2807000E60
:101070001E49096881F82000002271211A48FFF7F3
:10108000C5FCC8E71A480088401C19490880084672
:10109000008842F21071884210DD791CC8B2FFF757
:1010A00093FF042000EB05101049096881F8200027
:1010B000002271210C48FFF7A9FCACE70B4800683F
:1010C000001D50F82400875D384600F013F80748EB
:1010D0000068C6610548006880F8204000BF9AE7B4
:1010E00078000020820000200038004074000020BA
:1010F0007200002010B5044621460448FFF799FC11
:10110000012271210148FFF781FC10BD0038004029
:101110001CB501210520FFF729FB01218803FFF7FA
:1011200025FB01214804FFF711FB4FF48060ADF867
:10113000000048208DF8030069463F48FFF7AAF9F0
:101140000820ADF8000069463B48FFF7A3F94FF4CB
:101150000070ADF8000002208DF8020018208DF814
:10116000030069463448FFF795F90420ADF8000004
:1011700069463148FFF78EF94FF4E1302F49086096
:1011800000208880C880088188810C2048812C49F3
:1011900008682A49FFF752FD2949D1F8D4002749A8
:1011A000FFF74CFD26490122086840F22551FFF760
:1011B0001FFD23490122D1F8D40040F22551FFF749
:1011C00017FD1F4908680121FFF7DCFC1C49D1F815
:1011D000D4000121FFF7D6FC4FF4E060FFF784FA5A
:1011E00025208DF8040000208DF8060001208DF8E0
:1011F000070001A8FFF73EFA26208DF80400012021
:101200008DF806008DF8070001A8FFF733FA4FF4B8
:101210000040ADF8000003208DF8020010208DF88A
:10122000030069460448FFF735F94FF400410248CE
:10123000FFF7B9F91CBD0000000801409823002009
:101240009400002010B52F49D1F8D40040F2255168
:10125000FFF7A4FCD0B12C480078401C2A49087044
:101260002849D1F8D400FFF755FD2849284A1278BB
:10127000885427480078401C2549087008460078A3
:10128000C82803DD08460078C83808701D49D1F821
:10129000D40040F22771FFF781FC88B372B6194879
:1012A000B0F8A601F8B11748B0F8A601401E81B207
:1012B0001448A0F8A6110246B2F8A231D832D15C87
:1012C0000246D2F8D400FFF72AFD0E48B0F8A2017A
:1012D000401CC82190FBF1F201FB120081B20948C9
:1012E000A0F8A2110BE000210648A0F8A4110146C5
:1012F0000022D1F8D40040F22771FFF779FC62B6E2
:1013000010BD00009400002042020020D002002006
:101310004802002070B505460C465A21284600F0C8
:1013200091F85A21284600F08DF82178284600F0DF
:1013300089F86178284600F085F8A178284600F001
:1013400081F8E178284600F07DF8A521284600F0D4
:1013500079F870BD70B504460D4672B6352060430D
:10136000374901EB8000B0F8D000012833D1012CBF
:1013700019D10846B0F8A011D8304554D838B0F883
:10138000A001401CC82190FBF1F201FB120081B2C8
:101390002B48A0F8A011B0F8A601401C81B2284843
:1013A000A0F8A61149E02648B0F8CC10001D45541D
:1013B000001FB0F8CC00401CC82190FBF1F201FBEB
:1013C00012001F49A1F8CC000846B0F8D200401C1A
:1013D000A1F8D20031E0012C19D101211848A0F860
:1013E000A4110021A0F8A011A0F8A211A0F8A61144
:1013F0000146D1F8D4002946FFF791FC104901229B
:10140000D1F8D40040F22771FFF7F2FB15E001207C
:101410000B49A1F8D0000020A1F8CC00A1F8CE0023
:10142000A1F8D20008682946FFF779FC0449012297
:10143000086840F22771FFF7DBFB62B670BD000061
:101440009400002070B504460D46352060433349B2
:1014500001EB8000B0F8D000012831D13520604385
:1014600001EB8000001D352161432C4A02EB810114
:10147000B1F8CC10455435206043114601EB800093
:10148000B0F8CC00401CC82190FBF1F201FB120027
:1014900081B235206043214A02EB8000A0F8CC10D5
:1014A00035206043114601EB8000B0F8D200401CAB
:1014B00081B23520604302EB8000A0F8D2102BE00F
:1014C000012135206043154A02EB8000A0F8D010BE
:1014D00000213520604302EB8000A0F8CC103520BD
:1014E000604302EB8000A0F8CE103520604302EB91
:1014F0008000A0F8D2103521614352F8210029461E
:10150000FFF70DFC35216143044A52F82100012206
:1015100040F22771FFF76CFB70BD000094000020C3
:101520002DE9F04704460D46164635206043304904
:1015300001EB800000F104093520604301EB8000DD
:10154000B0F8CC703520604301EB8000B0F8D28059
:101550003520604301EB8000B0F8D00018BB0121BA
:1015600035206043224A02EB8000A0F8D01000270B
:1015700000213520604302EB8000A0F8CE108846A1
:1015800015F8011B35226243194B53F82200FFF76F
:10159000C6FB35216143164A52F82100012240F270
:1015A0002771FFF725FB701EC6B210E015F8010B7E
:1015B00009F80700781CC82190FBF1F201FB12002A
:1015C00087B208F101001FFA80F8701EC6B2002E23
:1015D000ECDC35206043064901EB8000A0F8CC70BC
:1015E0003520604301EB8000A0F8D280BDE8F08791
:1015F0009400002070B5044614F0800F01D0B02094
:1016000000E0A02005465A210020FFF7A3FE5A2142
:101610000020FFF79FFE00210846FFF79BFE0121F7
:101620000020FFF797FE29460020FFF793FE04F005
:101630007F010020FFF78EFEA5210020FFF78AFE24
:1016400070BD000010B57C49086840F22551FFF7D5
:10165000A5FA002873D079480068401C77490860D3
:1016600075490868FFF756FBC4B221460120FFF711
:1016700071FE73480078082874D2DFE800F0040592
:1016800014476174839500BF5A2C05D16C480078CB
:10169000401C6B49087002E0002069490870002076
:1016A0006849086091E0674801680068401C654A25
:1016B00010606548445410460068042825D1002075
:1016C000114608606048007870B95F484078032888
:1016D0000AD106205A4908705B4880780121C1EB85
:1016E00080005A49088010E05748007850B95648A1
:1016F0004078102806D10320514908700120544930
:10170000087002E007204E4908705EE04D4801680D
:101710000068401C4B4A10604E4844541046006814
:1017200002280BD10420464908704A4840784949AC
:10173000097840EA0120801C4449088045E045E0E2
:10174000404801680068401C3E4A106041484454CB
:10175000104600683D490988884202D1072038496F
:10176000087032E02DE0374801680068401C354AB7
:10177000106038484454062031490870A0003349AD
:10178000088022E02F4801680068401C2D4A106044
:1017900030484454104600682C490988884202D1D8
:1017A00007202749087010E0A52C03D101202A4901
:1017B000087002E0002028490870002020490870C5
:1017C00003E000201E49087000BF00BF1A490868E6
:1017D00040F22771FFF7E2F960B372B61648B0F82D
:1017E000D200E0B11448B0F8D200401E1249A1F86E
:1017F000D2000A46B2F8CE300A1DD15C121F106822
:10180000FFF78DFA0C48B0F8CE00401CC82190FBC1
:10181000F1F201FB12000849A1F8CE0009E0002016
:101820000549A1F8D0000022086840F22771FFF7AF
:10183000DFF962B610BD0000940000204C020020C9
:1018400041020020440200203D02002050020020FE
:1018500059020020980300203C02002086B000209E
:1018600004900024049012E00020059004E0BDF8EC
:101870001400401C80B20590BDF814004EF66021A3
:101880008842F4DBBDF81000401C80B20490BDF823
:1018900010001E28E8DBFFF73BFCFFF745FBFBE0F1
:1018A0007E48007800287DD172B618E07C48007828
:1018B000401E7B4908707B487B490978445C7A4824
:1018C0000078401C7849087008460078C82803DD75
:1018D00008460078C83808702046FFF78BFE70482D
:1018E00000780028E2D162B60020FFF777FA18B935
:1018F0000120FFF773FA98B101206C4908700020AD
:101900008DF8040027208DF8050069490888C11763
:1019100000EB1161090A8DF80610FF208DF8070011
:101920000220FFF75BFA60B300208DF8040002206C
:101930008DF8050000208DF806005D48808840F68F
:10194000B83188420CDD5B48007848B9012059491C
:1019500008708DF8070001A90020FFF7DBFC10E0FC
:1019600053488088B0F57A7F0BDA52480078012816
:1019700007D100204F4908708DF8070001A9FFF733
:10198000C9FC72B64C48B0F8A401E0BB4B480078E3
:10199000C8BB46480078012835D10020434908706B
:1019A0005A2000E030E08DF804008DF80500404832
:1019B0000188BDF80C0000F50870814207DC3C4846
:1019C0000188BDF80C00A0F5087081421BDA384888
:1019D0000088039000208DF8060027208DF807006E
:1019E00033490888C11700EB1161090A8DF8081006
:1019F000FF208DF80900A5208DF80A00072201A913
:101A00000120FFF78DFD62B62D480078E8B32D4820
:101A100040788DF804002B48C0788DF80500002030
:101A2000274908709DF80400022818D0032804D024
:101A300010282BD0FA282AD110E000208DF80400BD
:101A400004208DF8050000208DF8060001208DF897
:101A5000070001A90020FFF75DFC19E018E09DF8E0
:101A60000500022810D100208DF8040002208DF816
:101A7000050000208DF806000E4800788DF807005C
:101A800001A90020FFF746FC02E005E000E000BFEE
:101A900000BF00200A49087002E700005902002038
:101AA00042020020D00200204902002058020020FB
:101AB0008C000020560200209400002041020020EB
:101AC0003C0200203D020020E81A0008000000202F
:101AD0005C0200008C010008301B00085C02002042
:101AE0004C250000CC0D0008012B2D01020304043D
:101AF000200906070809020406087C180140041A98
:101B00000C041A08045A140C29081904120812109B
:101B100012041A013E19023A020611135C02021D58
:101B2000201A383C01D0124409D0D4011F00000013
:0400000508000131BD
:00000001FF
